{
  "contractName": "CreateHunter",
  "abi": [
    {
      "constant": true,
      "inputs": [
        {
          "name": "",
          "type": "uint256"
        }
      ],
      "name": "hunterToOwner",
      "outputs": [
        {
          "name": "",
          "type": "address"
        }
      ],
      "payable": false,
      "stateMutability": "view",
      "type": "function"
    },
    {
      "anonymous": false,
      "inputs": [
        {
          "indexed": false,
          "name": "hunterId",
          "type": "uint256"
        },
        {
          "indexed": false,
          "name": "name",
          "type": "string"
        },
        {
          "indexed": false,
          "name": "dna",
          "type": "uint256"
        }
      ],
      "name": "NewHunter",
      "type": "event"
    },
    {
      "constant": false,
      "inputs": [
        {
          "name": "_name",
          "type": "string"
        }
      ],
      "name": "createRandomHunter",
      "outputs": [],
      "payable": false,
      "stateMutability": "nonpayable",
      "type": "function"
    },
    {
      "constant": true,
      "inputs": [
        {
          "name": "_tokenId",
          "type": "uint256"
        }
      ],
      "name": "getOwnHunter",
      "outputs": [
        {
          "name": "",
          "type": "string"
        },
        {
          "name": "",
          "type": "uint256"
        }
      ],
      "payable": false,
      "stateMutability": "view",
      "type": "function"
    }
  ],
  "bytecode": "0x60606040526010600055600054600a0a600155341561001d57600080fd5b6108df8061002c6000396000f300606060405260043610610057576000357c0100000000000000000000000000000000000000000000000000000000900463ffffffff16806376869a7c1461005c57806376ce27c3146100bf578063daa361181461011c575b600080fd5b341561006757600080fd5b61007d60048080359060200190919050506101bf565b604051808273ffffffffffffffffffffffffffffffffffffffff1673ffffffffffffffffffffffffffffffffffffffff16815260200191505060405180910390f35b34156100ca57600080fd5b61011a600480803590602001908201803590602001908080601f016020809104026020016040519081016040528093929190818152602001838380828437820191505050505050919050506101f2565b005b341561012757600080fd5b61013d600480803590602001909190505061026b565b6040518080602001838152602001828103825284818151815260200191508051906020019080838360005b83811015610183578082015181840152602081019050610168565b50505050905090810190601f1680156101b05780820380516001836020036101000a031916815260200191505b50935050505060405180910390f35b60036020528060005260406000206000915054906101000a900473ffffffffffffffffffffffffffffffffffffffff1681565b600080600460003373ffffffffffffffffffffffffffffffffffffffff1673ffffffffffffffffffffffffffffffffffffffff1681526020019081526020016000205414151561024157600080fd5b61024a8261041c565b905060648181151561025857fe5b0681039050610267828261049e565b5050565b6102736106d9565b600061027d6106ed565b60028481548110151561028c57fe5b906000526020600020906005020160a06040519081016040529081600082018054600181600116156101000203166002900480601f01602080910402602001604051908101604052809291908181526020018280546001816001161561010002031660029004801561033f5780601f106103145761010080835404028352916020019161033f565b820191906000526020600020905b81548152906001019060200180831161032257829003601f168201915b50505050508152602001600182015481526020016002820154815260200160038201548152602001600482018054600181600116156101000203166002900480601f0160208091040260200160405190810160405280929190818152602001828054600181600116156101000203166002900480156103ff5780601f106103d4576101008083540402835291602001916103ff565b820191906000526020600020905b8154815290600101906020018083116103e257829003601f168201915b505050505081525050905080600001515080602001515050915091565b600080826040518082805190602001908083835b6020831015156104555780518252602082019150602081019050602083039250610430565b6001836020036101000a03801982511681845116808217855250505050505090500191505060405180910390206001900490506001548181151561049557fe5b06915050919050565b60006001600280548060010182816104b69190610729565b9160005260206000209060050201600060a06040519081016040528088815260200187815260200160018152602001600281526020016040805190810160405280600581526020017f66666666720000000000000000000000000000000000000000000000000000008152508152509091909150600082015181600001908051906020019061054692919061075b565b50602082015181600101556040820151816002015560608201518160030155608082015181600401908051906020019061058192919061075b565b505050039050336003600083815260200190815260200160002060006101000a81548173ffffffffffffffffffffffffffffffffffffffff021916908373ffffffffffffffffffffffffffffffffffffffff160217905550600460003373ffffffffffffffffffffffffffffffffffffffff1673ffffffffffffffffffffffffffffffffffffffff168152602001908152602001600020600081548092919060010191905055507fe930721bcf5fb881b98b4fe9261308fef9b7ee912c97a24cdce02b0418005cdf8184846040518084815260200180602001838152602001828103825284818151815260200191508051906020019080838360005b8381101561069857808201518184015260208101905061067d565b50505050905090810190601f1680156106c55780820380516001836020036101000a031916815260200191505b5094505050505060405180910390a1505050565b602060405190810160405280600081525090565b60a0604051908101604052806107016107db565b81526020016000815260200160008152602001600081526020016107236107db565b81525090565b8154818355818115116107565760050281600502836000526020600020918201910161075591906107ef565b5b505050565b828054600181600116156101000203166002900490600052602060002090601f016020900481019282601f1061079c57805160ff19168380011785556107ca565b828001600101855582156107ca579182015b828111156107c95782518255916020019190600101906107ae565b5b5090506107d79190610846565b5090565b602060405190810160405280600081525090565b61084391905b8082111561083f576000808201600061080e919061086b565b600182016000905560028201600090556003820160009055600482016000610836919061086b565b506005016107f5565b5090565b90565b61086891905b8082111561086457600081600090555060010161084c565b5090565b90565b50805460018160011615610100020316600290046000825580601f1061089157506108b0565b601f0160209004906000526020600020908101906108af9190610846565b5b505600a165627a7a72305820b568e8e73235483b4df0d87f29bbaf55e84dcdb1da0f74f8f2fd826a2605d0430029",
  "source": "pragma solidity ^0.4.16;\n\n\ncontract CreateHunter {\n\n    event NewHunter(uint hunterId, string name, uint dna);\n\n    uint dnaDigits = 16;\n    uint dnaModulus = 10 ** dnaDigits;\n\n  /* DATA TYPE */\n    struct Hunter {\n        string name;\n        uint level;\n        uint attack;\n        uint defense;\n        string dna;\n    }\n\n    /* STORAGE */\n    Hunter[] Hunters;\n\n    mapping (uint => address) public hunterToOwner;\n    mapping (address => uint) ownerHunterCount;\n\n    function _createHunter(string _name, uint _dna) internal {\n        uint id = Hunters.push(Hunter(_name, _dna, 1, 2, \"ffffr\")) - 1;\n        hunterToOwner[id] = msg.sender;\n        ownerHunterCount[msg.sender]++;\n        emit NewHunter(id, _name, _dna);\n    }\n\n    function _generateRandomDna(string _str) private view returns (uint) {\n        uint rand = uint(keccak256(_str));\n        return rand % dnaModulus;\n    }\n\n    function createRandomHunter(string _name) public {\n        require(ownerHunterCount[msg.sender] == 0);\n        uint randDna = _generateRandomDna(_name);\n        randDna = randDna - randDna % 100;\n        _createHunter(_name, randDna);\n    }\n\n\n    function getOwnHunter(uint256 _tokenId) external view returns (string, uint) {\n        Hunter memory hunter = Hunters[_tokenId];\n        hunter.name;\n        hunter.level;\n\n    }\n}\n",
  "sourcePath": "/Users/joh/cryptohunters_second/contracts/CreateHunter.sol",
  "compiler": {
    "name": "solc",
    "version": "0.4.21+commit.dfe3193c.Emscripten.clang"
  },
  "schemaVersion": "2.0.0",
  "updatedAt": "2018-04-16T12:46:47.374Z"
}