{
  "contractName": "CreateFighter",
  "abi": [
    {
      "constant": true,
      "inputs": [
        {
          "name": "",
          "type": "uint256"
        }
      ],
      "name": "fighterToOwner",
      "outputs": [
        {
          "name": "",
          "type": "address"
        }
      ],
      "payable": false,
      "stateMutability": "view",
      "type": "function"
    },
    {
      "constant": true,
      "inputs": [],
      "name": "owner",
      "outputs": [
        {
          "name": "",
          "type": "address"
        }
      ],
      "payable": false,
      "stateMutability": "view",
      "type": "function"
    },
    {
      "constant": false,
      "inputs": [
        {
          "name": "newOwner",
          "type": "address"
        }
      ],
      "name": "transferOwnership",
      "outputs": [],
      "payable": false,
      "stateMutability": "nonpayable",
      "type": "function"
    },
    {
      "anonymous": false,
      "inputs": [
        {
          "indexed": false,
          "name": "fighterId",
          "type": "uint256"
        },
        {
          "indexed": false,
          "name": "name",
          "type": "string"
        },
        {
          "indexed": false,
          "name": "dna",
          "type": "uint256"
        }
      ],
      "name": "NewFighter",
      "type": "event"
    },
    {
      "anonymous": false,
      "inputs": [
        {
          "indexed": true,
          "name": "previousOwner",
          "type": "address"
        },
        {
          "indexed": true,
          "name": "newOwner",
          "type": "address"
        }
      ],
      "name": "OwnershipTransferred",
      "type": "event"
    },
    {
      "constant": false,
      "inputs": [
        {
          "name": "_name",
          "type": "string"
        }
      ],
      "name": "createRandomFighter",
      "outputs": [],
      "payable": false,
      "stateMutability": "nonpayable",
      "type": "function"
    }
  ],
  "bytecode": "0x60606040526010600355600354600a0a600455336000806101000a81548173ffffffffffffffffffffffffffffffffffffffff021916908373ffffffffffffffffffffffffffffffffffffffff160217905550610824806100616000396000f300606060405260043610610062576000357c0100000000000000000000000000000000000000000000000000000000900463ffffffff1680632aff8c79146100675780633824fbec146100c45780638da5cb5b14610127578063f2fde38b1461017c575b600080fd5b341561007257600080fd5b6100c2600480803590602001908201803590602001908080601f016020809104026020016040519081016040528093929190818152602001838380828437820191505050505050919050506101b5565b005b34156100cf57600080fd5b6100e560048080359060200190919050506101e1565b604051808273ffffffffffffffffffffffffffffffffffffffff1673ffffffffffffffffffffffffffffffffffffffff16815260200191505060405180910390f35b341561013257600080fd5b61013a610214565b604051808273ffffffffffffffffffffffffffffffffffffffff1673ffffffffffffffffffffffffffffffffffffffff16815260200191505060405180910390f35b341561018757600080fd5b6101b3600480803573ffffffffffffffffffffffffffffffffffffffff16906020019091905050610239565b005b60006101c08261038e565b90506064818115156101ce57fe5b06810390506101dd8282610410565b5050565b60016020528060005260406000206000915054906101000a900473ffffffffffffffffffffffffffffffffffffffff1681565b6000809054906101000a900473ffffffffffffffffffffffffffffffffffffffff1681565b6000809054906101000a900473ffffffffffffffffffffffffffffffffffffffff1673ffffffffffffffffffffffffffffffffffffffff163373ffffffffffffffffffffffffffffffffffffffff1614151561029457600080fd5b600073ffffffffffffffffffffffffffffffffffffffff168173ffffffffffffffffffffffffffffffffffffffff16141515156102d057600080fd5b8073ffffffffffffffffffffffffffffffffffffffff166000809054906101000a900473ffffffffffffffffffffffffffffffffffffffff1673ffffffffffffffffffffffffffffffffffffffff167f8be0079c531659141344cd1fd0a4f28419497f9722a3daafe3b4186f6b6457e060405160405180910390a3806000806101000a81548173ffffffffffffffffffffffffffffffffffffffff021916908373ffffffffffffffffffffffffffffffffffffffff16021790555050565b600080826040518082805190602001908083835b6020831015156103c757805182526020820191506020810190506020830392506103a2565b6001836020036101000a03801982511681845116808217855250505050505090500191505060405180910390206001900490506004548181151561040757fe5b06915050919050565b60006001600580548060010182816104289190610661565b9160005260206000209060030201600060a060405190810160405280888152602001878152602001600163ffffffff168152602001600061ffff168152602001600061ffff1681525090919091506000820151816000019080519060200190610492929190610693565b506020820151816001015560408201518160020160006101000a81548163ffffffff021916908363ffffffff16021790555060608201518160020160046101000a81548161ffff021916908361ffff16021790555060808201518160020160066101000a81548161ffff021916908361ffff1602179055505050039050336001600083815260200190815260200160002060006101000a81548173ffffffffffffffffffffffffffffffffffffffff021916908373ffffffffffffffffffffffffffffffffffffffff160217905550600260003373ffffffffffffffffffffffffffffffffffffffff1673ffffffffffffffffffffffffffffffffffffffff168152602001908152602001600020600081548092919060010191905055507ff5de8ff8364442df1540926a753270c25dc3d984115cfe434a65dc56321745bb8184846040518084815260200180602001838152602001828103825284818151815260200191508051906020019080838360005b83811015610620578082015181840152602081019050610605565b50505050905090810190601f16801561064d5780820380516001836020036101000a031916815260200191505b5094505050505060405180910390a1505050565b81548183558181151161068e5760030281600302836000526020600020918201910161068d9190610713565b5b505050565b828054600181600116156101000203166002900490600052602060002090601f016020900481019282601f106106d457805160ff1916838001178555610702565b82800160010185558215610702579182015b828111156107015782518255916020019190600101906106e6565b5b50905061070f919061078b565b5090565b61078891905b80821115610784576000808201600061073291906107b0565b60018201600090556002820160006101000a81549063ffffffff02191690556002820160046101000a81549061ffff02191690556002820160066101000a81549061ffff021916905550600301610719565b5090565b90565b6107ad91905b808211156107a9576000816000905550600101610791565b5090565b90565b50805460018160011615610100020316600290046000825580601f106107d657506107f5565b601f0160209004906000526020600020908101906107f4919061078b565b5b505600a165627a7a72305820eaf6dfb8d3d77d744e00b302db881d3b60ce07ed78d464ec0fd70853c6841bdd0029",
  "source": "pragma solidity ^0.4.21;\nimport \"./safemath.sol\";\nimport \"./ownable.sol\";\n\n// import 'zeppelin-solidity/contracts/token/ERC721/ERC721Token.sol';\n\ncontract CreateFighter is Ownable {\n\n  event NewFighter(uint fighterId, string name, uint dna);\n\n  /* DATA TYPE */\n  struct Fighter {\n    string name;\n    uint dna;\n    uint32 level;\n    uint16 winCount;\n    uint16 lossCount;\n  }\n\n  mapping (uint => address) public fighterToOwner;\n  mapping (address => uint) ownerFighterCount;\n\n  uint dnaDigits = 16;\n  uint dnaModulus = 10 ** dnaDigits;\n\n  /* STORAGE */\n  Fighter[] fighters;\n\n  function _createFighter(string _name, uint _dna) internal {\n    uint id = fighters.push(Fighter(_name, _dna, 1, 0, 0)) - 1;\n    fighterToOwner[id] = msg.sender;\n    ownerFighterCount[msg.sender]++;\n    NewFighter(id, _name, _dna);\n  }\n\n  function _generateRandomDna(string _str) private view returns (uint) {\n    uint rand = uint(keccak256(_str));\n    return rand % dnaModulus;\n  }\n\n  function createRandomFighter(string _name) public {\n    uint randDna = _generateRandomDna(_name);\n    randDna = randDna - randDna % 100;\n    _createFighter(_name, randDna);\n  }\n\n}\n",
  "sourcePath": "/Users/joh/cryptohunters_second/contracts/CreateFighters.sol",
  "compiler": {
    "name": "solc",
    "version": "0.4.21+commit.dfe3193c.Emscripten.clang"
  },
  "schemaVersion": "2.0.0",
  "updatedAt": "2018-04-21T17:51:37.826Z"
}