{
  "contractName": "CreateFighter",
  "abi": [
    {
      "constant": true,
      "inputs": [
        {
          "name": "",
          "type": "uint256"
        }
      ],
      "name": "fighterToOwner",
      "outputs": [
        {
          "name": "",
          "type": "address"
        }
      ],
      "payable": false,
      "stateMutability": "view",
      "type": "function"
    },
    {
      "constant": true,
      "inputs": [],
      "name": "owner",
      "outputs": [
        {
          "name": "",
          "type": "address"
        }
      ],
      "payable": false,
      "stateMutability": "view",
      "type": "function"
    },
    {
      "constant": false,
      "inputs": [
        {
          "name": "newOwner",
          "type": "address"
        }
      ],
      "name": "transferOwnership",
      "outputs": [],
      "payable": false,
      "stateMutability": "nonpayable",
      "type": "function"
    },
    {
      "anonymous": false,
      "inputs": [
        {
          "indexed": false,
          "name": "fighterId",
          "type": "uint256"
        },
        {
          "indexed": false,
          "name": "name",
          "type": "string"
        },
        {
          "indexed": false,
          "name": "dna",
          "type": "uint256"
        }
      ],
      "name": "NewFighter",
      "type": "event"
    },
    {
      "anonymous": false,
      "inputs": [
        {
          "indexed": true,
          "name": "previousOwner",
          "type": "address"
        },
        {
          "indexed": true,
          "name": "newOwner",
          "type": "address"
        }
      ],
      "name": "OwnershipTransferred",
      "type": "event"
    },
    {
      "constant": false,
      "inputs": [
        {
          "name": "_name",
          "type": "string"
        }
      ],
      "name": "createRandomFighter",
      "outputs": [],
      "payable": false,
      "stateMutability": "nonpayable",
      "type": "function"
    },
    {
      "constant": true,
      "inputs": [
        {
          "name": "_owner",
          "type": "address"
        }
      ],
      "name": "getFightersByOwner",
      "outputs": [
        {
          "name": "",
          "type": "uint256[]"
        }
      ],
      "payable": false,
      "stateMutability": "view",
      "type": "function"
    }
  ],
  "bytecode": "0x60606040526010600355600354600a0a600455336000806101000a81548173ffffffffffffffffffffffffffffffffffffffff021916908373ffffffffffffffffffffffffffffffffffffffff1602179055506109ff806100616000396000f30060606040526004361061006d576000357c0100000000000000000000000000000000000000000000000000000000900463ffffffff1680632aff8c79146100725780633824fbec146100cf57806359fb97ac146101325780638da5cb5b146101c0578063f2fde38b14610215575b600080fd5b341561007d57600080fd5b6100cd600480803590602001908201803590602001908080601f0160208091040260200160405190810160405280939291908181526020018383808284378201915050505050509190505061024e565b005b34156100da57600080fd5b6100f0600480803590602001909190505061027a565b604051808273ffffffffffffffffffffffffffffffffffffffff1673ffffffffffffffffffffffffffffffffffffffff16815260200191505060405180910390f35b341561013d57600080fd5b610169600480803573ffffffffffffffffffffffffffffffffffffffff169060200190919050506102ad565b6040518080602001828103825283818151815260200191508051906020019060200280838360005b838110156101ac578082015181840152602081019050610191565b505050509050019250505060405180910390f35b34156101cb57600080fd5b6101d36103db565b604051808273ffffffffffffffffffffffffffffffffffffffff1673ffffffffffffffffffffffffffffffffffffffff16815260200191505060405180910390f35b341561022057600080fd5b61024c600480803573ffffffffffffffffffffffffffffffffffffffff16906020019091905050610400565b005b600061025982610555565b905060648181151561026757fe5b068103905061027682826105d7565b5050565b60016020528060005260406000206000915054906101000a900473ffffffffffffffffffffffffffffffffffffffff1681565b6102b5610828565b6102bd610828565b600080600260008673ffffffffffffffffffffffffffffffffffffffff1673ffffffffffffffffffffffffffffffffffffffff1681526020019081526020016000205460405180591061030d5750595b9080825280602002602001820160405250925060009150600090505b6005805490508110156103d0578473ffffffffffffffffffffffffffffffffffffffff166001600083815260200190815260200160002060009054906101000a900473ffffffffffffffffffffffffffffffffffffffff1673ffffffffffffffffffffffffffffffffffffffff1614156103c3578083838151811015156103ac57fe5b906020019060200201818152505081806001019250505b8080600101915050610329565b829350505050919050565b6000809054906101000a900473ffffffffffffffffffffffffffffffffffffffff1681565b6000809054906101000a900473ffffffffffffffffffffffffffffffffffffffff1673ffffffffffffffffffffffffffffffffffffffff163373ffffffffffffffffffffffffffffffffffffffff1614151561045b57600080fd5b600073ffffffffffffffffffffffffffffffffffffffff168173ffffffffffffffffffffffffffffffffffffffff161415151561049757600080fd5b8073ffffffffffffffffffffffffffffffffffffffff166000809054906101000a900473ffffffffffffffffffffffffffffffffffffffff1673ffffffffffffffffffffffffffffffffffffffff167f8be0079c531659141344cd1fd0a4f28419497f9722a3daafe3b4186f6b6457e060405160405180910390a3806000806101000a81548173ffffffffffffffffffffffffffffffffffffffff021916908373ffffffffffffffffffffffffffffffffffffffff16021790555050565b600080826040518082805190602001908083835b60208310151561058e5780518252602082019150602081019050602083039250610569565b6001836020036101000a0380198251168184511680821785525050505050509050019150506040518091039020600190049050600454818115156105ce57fe5b06915050919050565b60006001600580548060010182816105ef919061083c565b9160005260206000209060030201600060a060405190810160405280888152602001878152602001600163ffffffff168152602001600061ffff168152602001600061ffff168152509091909150600082015181600001908051906020019061065992919061086e565b506020820151816001015560408201518160020160006101000a81548163ffffffff021916908363ffffffff16021790555060608201518160020160046101000a81548161ffff021916908361ffff16021790555060808201518160020160066101000a81548161ffff021916908361ffff1602179055505050039050336001600083815260200190815260200160002060006101000a81548173ffffffffffffffffffffffffffffffffffffffff021916908373ffffffffffffffffffffffffffffffffffffffff160217905550600260003373ffffffffffffffffffffffffffffffffffffffff1673ffffffffffffffffffffffffffffffffffffffff168152602001908152602001600020600081548092919060010191905055507ff5de8ff8364442df1540926a753270c25dc3d984115cfe434a65dc56321745bb8184846040518084815260200180602001838152602001828103825284818151815260200191508051906020019080838360005b838110156107e75780820151818401526020810190506107cc565b50505050905090810190601f1680156108145780820380516001836020036101000a031916815260200191505b5094505050505060405180910390a1505050565b602060405190810160405280600081525090565b8154818355818115116108695760030281600302836000526020600020918201910161086891906108ee565b5b505050565b828054600181600116156101000203166002900490600052602060002090601f016020900481019282601f106108af57805160ff19168380011785556108dd565b828001600101855582156108dd579182015b828111156108dc5782518255916020019190600101906108c1565b5b5090506108ea9190610966565b5090565b61096391905b8082111561095f576000808201600061090d919061098b565b60018201600090556002820160006101000a81549063ffffffff02191690556002820160046101000a81549061ffff02191690556002820160066101000a81549061ffff0219169055506003016108f4565b5090565b90565b61098891905b8082111561098457600081600090555060010161096c565b5090565b90565b50805460018160011615610100020316600290046000825580601f106109b157506109d0565b601f0160209004906000526020600020908101906109cf9190610966565b5b505600a165627a7a723058204ee8fe7bb31ca5332561dd1414f887cc71844cbd6c6eefd1b9d16452b78c019e0029",
  "source": "pragma solidity ^0.4.21;\nimport \"./safemath.sol\";\nimport \"./ownable.sol\";\n\n// import 'zeppelin-solidity/contracts/token/ERC721/ERC721Token.sol';\n\ncontract CreateFighter is Ownable {\n\n  event NewFighter(uint fighterId, string name, uint dna);\n\n  /* DATA TYPE */\n  struct Fighter {\n    string name;\n    uint dna;\n    uint32 level;\n    uint16 winCount;\n    uint16 lossCount;\n  }\n\n  mapping (uint => address) public fighterToOwner;\n  mapping (address => uint) ownerFighterCount;\n\n  uint dnaDigits = 16;\n  uint dnaModulus = 10 ** dnaDigits;\n\n  /* STORAGE */\n  Fighter[] fighters;\n\n  function _createFighter(string _name, uint _dna) internal {\n    uint id = fighters.push(Fighter(_name, _dna, 1, 0, 0)) - 1;\n    fighterToOwner[id] = msg.sender;\n    ownerFighterCount[msg.sender]++;\n    NewFighter(id, _name, _dna);\n  }\n\n  function _generateRandomDna(string _str) private view returns (uint) {\n    uint rand = uint(keccak256(_str));\n    return rand % dnaModulus;\n  }\n\n  function createRandomFighter(string _name) public {\n    uint randDna = _generateRandomDna(_name);\n    randDna = randDna - randDna % 100;\n    _createFighter(_name, randDna);\n  }\n\n  function getFightersByOwner(address _owner) external view returns(uint[]) {\n    uint[] memory result = new uint[](ownerFighterCount[_owner]);\n    uint counter = 0;\n    for (uint i = 0; i < fighters.length; i++) {\n      if (fighterToOwner[i] == _owner) {\n        result[counter] = i;\n        counter++;\n      }\n    }\n    return result;\n  }\n\n}\n",
  "sourcePath": "/Users/joh/cryptohunters_second/contracts/CreateFighter.sol",
  "compiler": {
    "name": "solc",
    "version": "0.4.21+commit.dfe3193c.Emscripten.clang"
  },
  "schemaVersion": "2.0.0",
  "updatedAt": "2018-04-21T19:01:21.112Z"
}