{
  "contractName": "CreateFighter",
  "abi": [
    {
      "constant": true,
      "inputs": [
        {
          "name": "",
          "type": "uint256"
        }
      ],
      "name": "fighterToOwner",
      "outputs": [
        {
          "name": "",
          "type": "address"
        }
      ],
      "payable": false,
      "stateMutability": "view",
      "type": "function"
    },
    {
      "constant": true,
      "inputs": [],
      "name": "owner",
      "outputs": [
        {
          "name": "",
          "type": "address"
        }
      ],
      "payable": false,
      "stateMutability": "view",
      "type": "function"
    },
    {
      "constant": false,
      "inputs": [
        {
          "name": "newOwner",
          "type": "address"
        }
      ],
      "name": "transferOwnership",
      "outputs": [],
      "payable": false,
      "stateMutability": "nonpayable",
      "type": "function"
    },
    {
      "anonymous": false,
      "inputs": [
        {
          "indexed": false,
          "name": "fighterId",
          "type": "uint256"
        },
        {
          "indexed": false,
          "name": "name",
          "type": "string"
        },
        {
          "indexed": false,
          "name": "dna",
          "type": "uint256"
        }
      ],
      "name": "NewFighter",
      "type": "event"
    },
    {
      "anonymous": false,
      "inputs": [
        {
          "indexed": true,
          "name": "previousOwner",
          "type": "address"
        },
        {
          "indexed": true,
          "name": "newOwner",
          "type": "address"
        }
      ],
      "name": "OwnershipTransferred",
      "type": "event"
    },
    {
      "constant": false,
      "inputs": [
        {
          "name": "_name",
          "type": "string"
        }
      ],
      "name": "createRandomFighter",
      "outputs": [],
      "payable": false,
      "stateMutability": "nonpayable",
      "type": "function"
    },
    {
      "constant": true,
      "inputs": [
        {
          "name": "_owner",
          "type": "address"
        }
      ],
      "name": "getAllFightersOfOwner",
      "outputs": [
        {
          "name": "",
          "type": "uint256[]"
        }
      ],
      "payable": false,
      "stateMutability": "view",
      "type": "function"
    },
    {
      "constant": true,
      "inputs": [
        {
          "name": "_tokenId",
          "type": "uint256"
        }
      ],
      "name": "getFighter",
      "outputs": [
        {
          "name": "name",
          "type": "string"
        }
      ],
      "payable": false,
      "stateMutability": "view",
      "type": "function"
    }
  ],
  "bytecode": "0x60606040526010600355600354600a0a600455336000806101000a81548173ffffffffffffffffffffffffffffffffffffffff021916908373ffffffffffffffffffffffffffffffffffffffff160217905550610c6c806100616000396000f300606060405260043610610078576000357c0100000000000000000000000000000000000000000000000000000000900463ffffffff1680632aff8c791461007d5780633824fbec146100da578063889fa1dc1461013d5780638da5cb5b146101d9578063b6b64fff1461022e578063f2fde38b146102bc575b600080fd5b341561008857600080fd5b6100d8600480803590602001908201803590602001908080601f016020809104026020016040519081016040528093929190818152602001838380828437820191505050505050919050506102f5565b005b34156100e557600080fd5b6100fb6004808035906020019091905050610321565b604051808273ffffffffffffffffffffffffffffffffffffffff1673ffffffffffffffffffffffffffffffffffffffff16815260200191505060405180910390f35b341561014857600080fd5b61015e6004808035906020019091905050610354565b6040518080602001828103825283818151815260200191508051906020019080838360005b8381101561019e578082015181840152602081019050610183565b50505050905090810190601f1680156101cb5780820380516001836020036101000a031916815260200191505b509250505060405180910390f35b34156101e457600080fd5b6101ec6104ae565b604051808273ffffffffffffffffffffffffffffffffffffffff1673ffffffffffffffffffffffffffffffffffffffff16815260200191505060405180910390f35b341561023957600080fd5b610265600480803573ffffffffffffffffffffffffffffffffffffffff169060200190919050506104d3565b6040518080602001828103825283818151815260200191508051906020019060200280838360005b838110156102a857808201518184015260208101905061028d565b505050509050019250505060405180910390f35b34156102c757600080fd5b6102f3600480803573ffffffffffffffffffffffffffffffffffffffff16906020019091905050610601565b005b600061030082610756565b905060648181151561030e57fe5b068103905061031d82826107d8565b5050565b60016020528060005260406000206000915054906101000a900473ffffffffffffffffffffffffffffffffffffffff1681565b61035c610a29565b610364610a3d565b60058381548110151561037357fe5b906000526020600020906003020160a06040519081016040529081600082018054600181600116156101000203166002900480601f0160208091040260200160405190810160405280929190818152602001828054600181600116156101000203166002900480156104265780601f106103fb57610100808354040283529160200191610426565b820191906000526020600020905b81548152906001019060200180831161040957829003601f168201915b50505050508152602001600182015481526020016002820160009054906101000a900463ffffffff1663ffffffff1663ffffffff1681526020016002820160049054906101000a900461ffff1661ffff1661ffff1681526020016002820160069054906101000a900461ffff1661ffff1661ffff168152505090508060000151915050919050565b6000809054906101000a900473ffffffffffffffffffffffffffffffffffffffff1681565b6104db610a81565b6104e3610a81565b600080600260008673ffffffffffffffffffffffffffffffffffffffff1673ffffffffffffffffffffffffffffffffffffffff168152602001908152602001600020546040518059106105335750595b9080825280602002602001820160405250925060009150600090505b6005805490508110156105f6578473ffffffffffffffffffffffffffffffffffffffff166001600083815260200190815260200160002060009054906101000a900473ffffffffffffffffffffffffffffffffffffffff1673ffffffffffffffffffffffffffffffffffffffff1614156105e9578083838151811015156105d257fe5b906020019060200201818152505081806001019250505b808060010191505061054f565b829350505050919050565b6000809054906101000a900473ffffffffffffffffffffffffffffffffffffffff1673ffffffffffffffffffffffffffffffffffffffff163373ffffffffffffffffffffffffffffffffffffffff1614151561065c57600080fd5b600073ffffffffffffffffffffffffffffffffffffffff168173ffffffffffffffffffffffffffffffffffffffff161415151561069857600080fd5b8073ffffffffffffffffffffffffffffffffffffffff166000809054906101000a900473ffffffffffffffffffffffffffffffffffffffff1673ffffffffffffffffffffffffffffffffffffffff167f8be0079c531659141344cd1fd0a4f28419497f9722a3daafe3b4186f6b6457e060405160405180910390a3806000806101000a81548173ffffffffffffffffffffffffffffffffffffffff021916908373ffffffffffffffffffffffffffffffffffffffff16021790555050565b600080826040518082805190602001908083835b60208310151561078f578051825260208201915060208101905060208303925061076a565b6001836020036101000a0380198251168184511680821785525050505050509050019150506040518091039020600190049050600454818115156107cf57fe5b06915050919050565b60006001600580548060010182816107f09190610a95565b9160005260206000209060030201600060a060405190810160405280888152602001878152602001600163ffffffff168152602001600061ffff168152602001600061ffff168152509091909150600082015181600001908051906020019061085a929190610ac7565b506020820151816001015560408201518160020160006101000a81548163ffffffff021916908363ffffffff16021790555060608201518160020160046101000a81548161ffff021916908361ffff16021790555060808201518160020160066101000a81548161ffff021916908361ffff1602179055505050039050336001600083815260200190815260200160002060006101000a81548173ffffffffffffffffffffffffffffffffffffffff021916908373ffffffffffffffffffffffffffffffffffffffff160217905550600260003373ffffffffffffffffffffffffffffffffffffffff1673ffffffffffffffffffffffffffffffffffffffff168152602001908152602001600020600081548092919060010191905055507ff5de8ff8364442df1540926a753270c25dc3d984115cfe434a65dc56321745bb8184846040518084815260200180602001838152602001828103825284818151815260200191508051906020019080838360005b838110156109e85780820151818401526020810190506109cd565b50505050905090810190601f168015610a155780820380516001836020036101000a031916815260200191505b5094505050505060405180910390a1505050565b602060405190810160405280600081525090565b60a060405190810160405280610a51610b47565b815260200160008152602001600063ffffffff168152602001600061ffff168152602001600061ffff1681525090565b602060405190810160405280600081525090565b815481835581811511610ac257600302816003028360005260206000209182019101610ac19190610b5b565b5b505050565b828054600181600116156101000203166002900490600052602060002090601f016020900481019282601f10610b0857805160ff1916838001178555610b36565b82800160010185558215610b36579182015b82811115610b35578251825591602001919060010190610b1a565b5b509050610b439190610bd3565b5090565b602060405190810160405280600081525090565b610bd091905b80821115610bcc5760008082016000610b7a9190610bf8565b60018201600090556002820160006101000a81549063ffffffff02191690556002820160046101000a81549061ffff02191690556002820160066101000a81549061ffff021916905550600301610b61565b5090565b90565b610bf591905b80821115610bf1576000816000905550600101610bd9565b5090565b90565b50805460018160011615610100020316600290046000825580601f10610c1e5750610c3d565b601f016020900490600052602060002090810190610c3c9190610bd3565b5b505600a165627a7a723058209212745d9a8b41b1178fb24602491246f4353b271a7386171fbf95921219f2f60029",
  "source": "pragma solidity ^0.4.21;\nimport \"./safemath.sol\";\nimport \"./ownable.sol\";\n\n// import 'zeppelin-solidity/contracts/token/ERC721/ERC721Token.sol';\n\ncontract CreateFighter is Ownable {\n\n  event NewFighter(uint fighterId, string name, uint dna);\n\n  /* DATA TYPE */\n  struct Fighter {\n    string name;\n    uint dna;\n    uint32 level;\n    uint16 winCount;\n    uint16 lossCount;\n  }\n\n  mapping (uint => address) public fighterToOwner;\n  mapping (address => uint) ownerFighterCount;\n\n  uint dnaDigits = 16;\n  uint dnaModulus = 10 ** dnaDigits;\n\n  /* STORAGE */\n  Fighter[] fighters;\n\n  function _createFighter(string _name, uint _dna) internal {\n    uint id = fighters.push(Fighter(_name, _dna, 1, 0, 0)) - 1;\n    fighterToOwner[id] = msg.sender;\n    ownerFighterCount[msg.sender]++;\n    NewFighter(id, _name, _dna);\n  }\n\n  function _generateRandomDna(string _str) private view returns (uint) {\n    uint rand = uint(keccak256(_str));\n    return rand % dnaModulus;\n  }\n\n  function createRandomFighter(string _name) public {\n    uint randDna = _generateRandomDna(_name);\n    randDna = randDna - randDna % 100;\n    _createFighter(_name, randDna);\n  }\n\n  // function getAllFightersOfOwner(address _owner) external view returns(uint b) {\n  //   uint aa = ownerFighterCount[msg.sender];\n  //   b = 4;\n  // }\n\n  function getAllFightersOfOwner(address _owner) external view returns(uint[]) {\n    uint[] memory result = new uint[](ownerFighterCount[_owner]);\n    uint counter = 0;\n    for (uint i = 0; i < fighters.length; i++) {\n      if (fighterToOwner[i] == _owner) {\n        result[counter] = i;\n        counter++;\n      }\n    }\n    return result;\n  }\n\n  function getFighter(uint256 _tokenId) external view returns (string name) {\n    Fighter memory fighter = fighters[_tokenId];\n\n    name = fighter.name;\n\n  }\n\n  // function getAllDTweets() external view returns (uint256[]) {\n  //   return allTokens;\n  // }\n\n}\n",
  "sourcePath": "/Users/joh/cryptohunters_second/contracts/CreateFighter.sol",
  "compiler": {
    "name": "solc",
    "version": "0.4.21+commit.dfe3193c.Emscripten.clang"
  },
  "schemaVersion": "2.0.0",
  "updatedAt": "2018-04-30T08:49:13.634Z"
}