{
  "contractName": "CreateHunter",
  "abi": [
    {
      "constant": true,
      "inputs": [
        {
          "name": "",
          "type": "uint256"
        }
      ],
      "name": "hunterToOwner",
      "outputs": [
        {
          "name": "",
          "type": "address"
        }
      ],
      "payable": false,
      "stateMutability": "view",
      "type": "function"
    },
    {
      "constant": true,
      "inputs": [],
      "name": "owner",
      "outputs": [
        {
          "name": "",
          "type": "address"
        }
      ],
      "payable": false,
      "stateMutability": "view",
      "type": "function"
    },
    {
      "constant": false,
      "inputs": [
        {
          "name": "newOwner",
          "type": "address"
        }
      ],
      "name": "transferOwnership",
      "outputs": [],
      "payable": false,
      "stateMutability": "nonpayable",
      "type": "function"
    },
    {
      "anonymous": false,
      "inputs": [
        {
          "indexed": false,
          "name": "hunterId",
          "type": "uint256"
        },
        {
          "indexed": false,
          "name": "name",
          "type": "string"
        },
        {
          "indexed": false,
          "name": "dna",
          "type": "uint256"
        }
      ],
      "name": "NewHunter",
      "type": "event"
    },
    {
      "anonymous": false,
      "inputs": [
        {
          "indexed": true,
          "name": "previousOwner",
          "type": "address"
        },
        {
          "indexed": true,
          "name": "newOwner",
          "type": "address"
        }
      ],
      "name": "OwnershipTransferred",
      "type": "event"
    },
    {
      "constant": false,
      "inputs": [
        {
          "name": "_name",
          "type": "string"
        }
      ],
      "name": "createRandomHunter",
      "outputs": [],
      "payable": false,
      "stateMutability": "nonpayable",
      "type": "function"
    }
  ],
  "bytecode": "0x60606040526010600355600354600a0a60045562015180600555336000806101000a81548173ffffffffffffffffffffffffffffffffffffffff021916908373ffffffffffffffffffffffffffffffffffffffff1602179055506108bf806100686000396000f300606060405260043610610062576000357c0100000000000000000000000000000000000000000000000000000000900463ffffffff16806376869a7c1461006757806376ce27c3146100ca5780638da5cb5b14610127578063f2fde38b1461017c575b600080fd5b341561007257600080fd5b61008860048080359060200190919050506101b5565b604051808273ffffffffffffffffffffffffffffffffffffffff1673ffffffffffffffffffffffffffffffffffffffff16815260200191505060405180910390f35b34156100d557600080fd5b610125600480803590602001908201803590602001908080601f016020809104026020016040519081016040528093929190818152602001838380828437820191505050505050919050506101e8565b005b341561013257600080fd5b61013a610261565b604051808273ffffffffffffffffffffffffffffffffffffffff1673ffffffffffffffffffffffffffffffffffffffff16815260200191505060405180910390f35b341561018757600080fd5b6101b3600480803573ffffffffffffffffffffffffffffffffffffffff16906020019091905050610286565b005b60016020528060005260406000206000915054906101000a900473ffffffffffffffffffffffffffffffffffffffff1681565b600080600260003373ffffffffffffffffffffffffffffffffffffffff1673ffffffffffffffffffffffffffffffffffffffff1681526020019081526020016000205414151561023757600080fd5b610240826103db565b905060648181151561024e57fe5b068103905061025d828261045d565b5050565b6000809054906101000a900473ffffffffffffffffffffffffffffffffffffffff1681565b6000809054906101000a900473ffffffffffffffffffffffffffffffffffffffff1673ffffffffffffffffffffffffffffffffffffffff163373ffffffffffffffffffffffffffffffffffffffff161415156102e157600080fd5b600073ffffffffffffffffffffffffffffffffffffffff168173ffffffffffffffffffffffffffffffffffffffff161415151561031d57600080fd5b8073ffffffffffffffffffffffffffffffffffffffff166000809054906101000a900473ffffffffffffffffffffffffffffffffffffffff1673ffffffffffffffffffffffffffffffffffffffff167f8be0079c531659141344cd1fd0a4f28419497f9722a3daafe3b4186f6b6457e060405160405180910390a3806000806101000a81548173ffffffffffffffffffffffffffffffffffffffff021916908373ffffffffffffffffffffffffffffffffffffffff16021790555050565b600080826040518082805190602001908083835b60208310151561041457805182526020820191506020810190506020830392506103ef565b6001836020036101000a03801982511681845116808217855250505050505090500191505060405180910390206001900490506004548181151561045457fe5b06915050919050565b600060016006805480600101828161047591906106e5565b9160005260206000209060030201600060c060405190810160405280888152602001878152602001600163ffffffff168152602001600554420163ffffffff168152602001600061ffff168152602001600061ffff16815250909190915060008201518160000190805190602001906104ef929190610717565b506020820151816001015560408201518160020160006101000a81548163ffffffff021916908363ffffffff16021790555060608201518160020160046101000a81548163ffffffff021916908363ffffffff16021790555060808201518160020160086101000a81548161ffff021916908361ffff16021790555060a082015181600201600a6101000a81548161ffff021916908361ffff1602179055505050039050336001600083815260200190815260200160002060006101000a81548173ffffffffffffffffffffffffffffffffffffffff021916908373ffffffffffffffffffffffffffffffffffffffff160217905550600260003373ffffffffffffffffffffffffffffffffffffffff1673ffffffffffffffffffffffffffffffffffffffff168152602001908152602001600020600081548092919060010191905055507fe930721bcf5fb881b98b4fe9261308fef9b7ee912c97a24cdce02b0418005cdf8184846040518084815260200180602001838152602001828103825284818151815260200191508051906020019080838360005b838110156106a4578082015181840152602081019050610689565b50505050905090810190601f1680156106d15780820380516001836020036101000a031916815260200191505b5094505050505060405180910390a1505050565b815481835581811511610712576003028160030283600052602060002091820191016107119190610797565b5b505050565b828054600181600116156101000203166002900490600052602060002090601f016020900481019282601f1061075857805160ff1916838001178555610786565b82800160010185558215610786579182015b8281111561078557825182559160200191906001019061076a565b5b5090506107939190610826565b5090565b61082391905b8082111561081f57600080820160006107b6919061084b565b60018201600090556002820160006101000a81549063ffffffff02191690556002820160046101000a81549063ffffffff02191690556002820160086101000a81549061ffff021916905560028201600a6101000a81549061ffff02191690555060030161079d565b5090565b90565b61084891905b8082111561084457600081600090555060010161082c565b5090565b90565b50805460018160011615610100020316600290046000825580601f106108715750610890565b601f01602090049060005260206000209081019061088f9190610826565b5b505600a165627a7a7230582056387a38a13263f90db862ef3dd2d13137bccfd89250d9edb044ef75910bbb9b0029",
  "source": "pragma solidity ^0.4.21;\nimport \"./safemath.sol\";\nimport \"./ownable.sol\";\n\n// import 'zeppelin-solidity/contracts/token/ERC721/ERC721Token.sol';\n\ncontract CreateHunter is Ownable {\n\n  event NewHunter(uint hunterId, string name, uint dna);\n\n  /* DATA TYPE */\n  struct Hunter {\n    string name;\n    uint dna;\n    uint32 level;\n    uint32 readyTime;\n    uint16 winCount;\n    uint16 lossCount;\n  }\n\n  mapping (uint => address) public hunterToOwner;\n  mapping (address => uint) ownerHunterCount;\n\n  uint dnaDigits = 16;\n  uint dnaModulus = 10 ** dnaDigits;\n  uint cooldownTime = 1 days;\n\n  /* STORAGE */\n  Hunter[] hunters;\n\n  function _createHunter(string _name, uint _dna) internal {\n    uint id = hunters.push(Hunter(_name, _dna, 1, uint32(now + cooldownTime), 0, 0)) - 1;\n    hunterToOwner[id] = msg.sender;\n    ownerHunterCount[msg.sender]++;\n    NewHunter(id, _name, _dna);\n  }\n\n  function _generateRandomDna(string _str) private view returns (uint) {\n    uint rand = uint(keccak256(_str));\n    return rand % dnaModulus;\n  }\n\n  function createRandomHunter(string _name) public {\n    require(ownerHunterCount[msg.sender] == 0);\n    uint randDna = _generateRandomDna(_name);\n    randDna = randDna - randDna % 100;\n    _createHunter(_name, randDna);\n  }\n\n}\n",
  "sourcePath": "/Users/joh/cryptohunters_second/contracts/CreateHunters.sol",
  "compiler": {
    "name": "solc",
    "version": "0.4.21+commit.dfe3193c.Emscripten.clang"
  },
  "schemaVersion": "2.0.0",
  "updatedAt": "2018-04-17T19:51:32.202Z"
}