{
  "contractName": "FighterAttack",
  "abi": [
    {
      "constant": false,
      "inputs": [
        {
          "name": "_name",
          "type": "string"
        }
      ],
      "name": "createRandomFighter",
      "outputs": [],
      "payable": false,
      "stateMutability": "nonpayable",
      "type": "function"
    },
    {
      "constant": true,
      "inputs": [
        {
          "name": "",
          "type": "uint256"
        }
      ],
      "name": "fighterToOwner",
      "outputs": [
        {
          "name": "",
          "type": "address"
        }
      ],
      "payable": false,
      "stateMutability": "view",
      "type": "function"
    },
    {
      "constant": true,
      "inputs": [
        {
          "name": "_tokenId",
          "type": "uint256"
        }
      ],
      "name": "getFighter",
      "outputs": [
        {
          "name": "name",
          "type": "string"
        },
        {
          "name": "level",
          "type": "uint32"
        }
      ],
      "payable": false,
      "stateMutability": "view",
      "type": "function"
    },
    {
      "constant": true,
      "inputs": [],
      "name": "owner",
      "outputs": [
        {
          "name": "",
          "type": "address"
        }
      ],
      "payable": false,
      "stateMutability": "view",
      "type": "function"
    },
    {
      "constant": true,
      "inputs": [
        {
          "name": "_owner",
          "type": "address"
        }
      ],
      "name": "getAllFightersOfOwner",
      "outputs": [
        {
          "name": "",
          "type": "uint256[]"
        }
      ],
      "payable": false,
      "stateMutability": "view",
      "type": "function"
    },
    {
      "constant": false,
      "inputs": [
        {
          "name": "newOwner",
          "type": "address"
        }
      ],
      "name": "transferOwnership",
      "outputs": [],
      "payable": false,
      "stateMutability": "nonpayable",
      "type": "function"
    },
    {
      "anonymous": false,
      "inputs": [
        {
          "indexed": false,
          "name": "fighterId",
          "type": "uint256"
        },
        {
          "indexed": false,
          "name": "name",
          "type": "string"
        },
        {
          "indexed": false,
          "name": "dna",
          "type": "uint256"
        }
      ],
      "name": "NewFighter",
      "type": "event"
    },
    {
      "anonymous": false,
      "inputs": [
        {
          "indexed": true,
          "name": "previousOwner",
          "type": "address"
        },
        {
          "indexed": true,
          "name": "newOwner",
          "type": "address"
        }
      ],
      "name": "OwnershipTransferred",
      "type": "event"
    },
    {
      "constant": false,
      "inputs": [
        {
          "name": "_fighterId",
          "type": "uint256"
        },
        {
          "name": "_targetId",
          "type": "uint256"
        }
      ],
      "name": "attack",
      "outputs": [],
      "payable": false,
      "stateMutability": "nonpayable",
      "type": "function"
    }
  ],
  "bytecode": "0x60606040526010600355600354600a0a60045560006006556064600755336000806101000a81548173ffffffffffffffffffffffffffffffffffffffff021916908373ffffffffffffffffffffffffffffffffffffffff160217905550610fc08061006b6000396000f300606060405260043610610083576000357c0100000000000000000000000000000000000000000000000000000000900463ffffffff1680632aff8c79146100885780633824fbec146100e5578063889fa1dc146101485780638da5cb5b146101f7578063b6b64fff1461024c578063e1fa7638146102da578063f2fde38b14610306575b600080fd5b341561009357600080fd5b6100e3600480803590602001908201803590602001908080601f0160208091040260200160405190810160405280939291908181526020018383808284378201915050505050509190505061033f565b005b34156100f057600080fd5b610106600480803590602001909190505061036b565b604051808273ffffffffffffffffffffffffffffffffffffffff1673ffffffffffffffffffffffffffffffffffffffff16815260200191505060405180910390f35b341561015357600080fd5b610169600480803590602001909190505061039e565b60405180806020018363ffffffff1663ffffffff168152602001828103825284818151815260200191508051906020019080838360005b838110156101bb5780820151818401526020810190506101a0565b50505050905090810190601f1680156101e85780820380516001836020036101000a031916815260200191505b50935050505060405180910390f35b341561020257600080fd5b61020a610501565b604051808273ffffffffffffffffffffffffffffffffffffffff1673ffffffffffffffffffffffffffffffffffffffff16815260200191505060405180910390f35b341561025757600080fd5b610283600480803573ffffffffffffffffffffffffffffffffffffffff16906020019091905050610526565b6040518080602001828103825283818151815260200191508051906020019060200280838360005b838110156102c65780820151818401526020810190506102ab565b505050509050019250505060405180910390f35b34156102e557600080fd5b6103046004808035906020019091908035906020019091905050610654565b005b341561031157600080fd5b61033d600480803573ffffffffffffffffffffffffffffffffffffffff169060200190919050506108c8565b005b600061034a82610a1d565b905060648181151561035857fe5b06810390506103678282610a9f565b5050565b60016020528060005260406000206000915054906101000a900473ffffffffffffffffffffffffffffffffffffffff1681565b6103a6610d7d565b60006103b0610d91565b6005848154811015156103bf57fe5b906000526020600020906003020160a06040519081016040529081600082018054600181600116156101000203166002900480601f0160208091040260200160405190810160405280929190818152602001828054600181600116156101000203166002900480156104725780601f1061044757610100808354040283529160200191610472565b820191906000526020600020905b81548152906001019060200180831161045557829003601f168201915b50505050508152602001600182015481526020016002820160009054906101000a900463ffffffff1663ffffffff1663ffffffff1681526020016002820160049054906101000a900461ffff1661ffff1661ffff1681526020016002820160069054906101000a900461ffff1661ffff1661ffff16815250509050806000015192508060400151915050915091565b6000809054906101000a900473ffffffffffffffffffffffffffffffffffffffff1681565b61052e610dd5565b610536610dd5565b600080600260008673ffffffffffffffffffffffffffffffffffffffff1673ffffffffffffffffffffffffffffffffffffffff168152602001908152602001600020546040518059106105865750595b9080825280602002602001820160405250925060009150600090505b600580549050811015610649578473ffffffffffffffffffffffffffffffffffffffff166001600083815260200190815260200160002060009054906101000a900473ffffffffffffffffffffffffffffffffffffffff1673ffffffffffffffffffffffffffffffffffffffff16141561063c5780838381518110151561062557fe5b906020019060200201818152505081806001019250505b80806001019150506105a2565b829350505050919050565b6000806000846001600082815260200190815260200160002060009054906101000a900473ffffffffffffffffffffffffffffffffffffffff1673ffffffffffffffffffffffffffffffffffffffff163373ffffffffffffffffffffffffffffffffffffffff161415156106c757600080fd5b6005868154811015156106d657fe5b906000526020600020906003020193506005858154811015156106f557fe5b9060005260206000209060030201925061070f6064610cf0565b91506007548460020160009054906101000a900463ffffffff1663ffffffff1611151561079f5760648460020160009054906101000a900463ffffffff1663ffffffff168460020160009054906101000a900463ffffffff1663ffffffff1681151561077757fe5b0460010163ffffffff16600181151561078c57fe5b040263ffffffff16600781905550610804565b60648460020160009054906101000a900463ffffffff1663ffffffff168460020160009054906101000a900463ffffffff1663ffffffff168115156107e057fe5b0460010363ffffffff1660018115156107f557fe5b040263ffffffff166007819055505b600754821115156108885783600201600481819054906101000a900461ffff168092919060010191906101000a81548161ffff021916908361ffff1602179055505083600201600081819054906101000a900463ffffffff168092919060010191906101000a81548163ffffffff021916908363ffffffff160217905550506108c0565b83600201600681819054906101000a900461ffff168092919060010191906101000a81548161ffff021916908361ffff160217905550505b505050505050565b6000809054906101000a900473ffffffffffffffffffffffffffffffffffffffff1673ffffffffffffffffffffffffffffffffffffffff163373ffffffffffffffffffffffffffffffffffffffff1614151561092357600080fd5b600073ffffffffffffffffffffffffffffffffffffffff168173ffffffffffffffffffffffffffffffffffffffff161415151561095f57600080fd5b8073ffffffffffffffffffffffffffffffffffffffff166000809054906101000a900473ffffffffffffffffffffffffffffffffffffffff1673ffffffffffffffffffffffffffffffffffffffff167f8be0079c531659141344cd1fd0a4f28419497f9722a3daafe3b4186f6b6457e060405160405180910390a3806000806101000a81548173ffffffffffffffffffffffffffffffffffffffff021916908373ffffffffffffffffffffffffffffffffffffffff16021790555050565b600080826040518082805190602001908083835b602083101515610a565780518252602082019150602081019050602083039250610a31565b6001836020036101000a038019825116818451168082178552505050505050905001915050604051809103902060019004905060045481811515610a9657fe5b06915050919050565b6000600160058054806001018281610ab79190610de9565b9160005260206000209060030201600060a060405190810160405280888152602001878152602001600663ffffffff168152602001600061ffff168152602001600061ffff1681525090919091506000820151816000019080519060200190610b21929190610e1b565b506020820151816001015560408201518160020160006101000a81548163ffffffff021916908363ffffffff16021790555060608201518160020160046101000a81548161ffff021916908361ffff16021790555060808201518160020160066101000a81548161ffff021916908361ffff1602179055505050039050336001600083815260200190815260200160002060006101000a81548173ffffffffffffffffffffffffffffffffffffffff021916908373ffffffffffffffffffffffffffffffffffffffff160217905550600260003373ffffffffffffffffffffffffffffffffffffffff1673ffffffffffffffffffffffffffffffffffffffff168152602001908152602001600020600081548092919060010191905055507ff5de8ff8364442df1540926a753270c25dc3d984115cfe434a65dc56321745bb8184846040518084815260200180602001838152602001828103825284818151815260200191508051906020019080838360005b83811015610caf578082015181840152602081019050610c94565b50505050905090810190601f168015610cdc5780820380516001836020036101000a031916815260200191505b5094505050505060405180910390a1505050565b6000600660008154809291906001019190505550814233600654604051808481526020018373ffffffffffffffffffffffffffffffffffffffff1673ffffffffffffffffffffffffffffffffffffffff166c010000000000000000000000000281526014018281526020019350505050604051809103902060019004811515610d7557fe5b069050919050565b602060405190810160405280600081525090565b60a060405190810160405280610da5610e9b565b815260200160008152602001600063ffffffff168152602001600061ffff168152602001600061ffff1681525090565b602060405190810160405280600081525090565b815481835581811511610e1657600302816003028360005260206000209182019101610e159190610eaf565b5b505050565b828054600181600116156101000203166002900490600052602060002090601f016020900481019282601f10610e5c57805160ff1916838001178555610e8a565b82800160010185558215610e8a579182015b82811115610e89578251825591602001919060010190610e6e565b5b509050610e979190610f27565b5090565b602060405190810160405280600081525090565b610f2491905b80821115610f205760008082016000610ece9190610f4c565b60018201600090556002820160006101000a81549063ffffffff02191690556002820160046101000a81549061ffff02191690556002820160066101000a81549061ffff021916905550600301610eb5565b5090565b90565b610f4991905b80821115610f45576000816000905550600101610f2d565b5090565b90565b50805460018160011615610100020316600290046000825580601f10610f725750610f91565b601f016020900490600052602060002090810190610f909190610f27565b5b505600a165627a7a72305820b792b4e7c3e12b140a616642cb44d4f460ae16688bb281dfc87d1bc08713e6ed0029",
  "source": "pragma solidity ^0.4.19;\n\nimport \"./CreateFighter.sol\";\n\ncontract FighterAttack is CreateFighter {\n\n  uint randNonce = 0;\n  uint attackVictoryProbability = 100;\n\n  function randMod(uint _modulus) internal returns(uint) {\n    randNonce++;\n    return uint(keccak256(now, msg.sender, randNonce)) % _modulus;\n  }\n\n  modifier onlyOwnerOf(uint _fighterId) {\n    require(msg.sender == fighterToOwner[_fighterId]);\n    _;\n  }\n\n  function attack(uint _fighterId, uint _targetId) external onlyOwnerOf(_fighterId) {\n    Fighter storage myFighter = fighters[_fighterId];\n    Fighter storage targetFighter = fighters[_targetId];\n    uint rand = randMod(100);\n    if (myFighter.level <= attackVictoryProbability) {\n      attackVictoryProbability = 1 / ( 1 + targetFighter.level / myFighter.level) * 100;\n    } else {\n      attackVictoryProbability = 1 / ( 1 - targetFighter.level / myFighter.level) * 100;\n    }\n    if (rand <= attackVictoryProbability) {\n      myFighter.winCount++;\n      myFighter.level++;\n\n    } else {\n      myFighter.lossCount++;\n    }\n  }\n\n\n}\n",
  "sourcePath": "/Users/joh/cryptohunters_second/contracts/attack.sol",
  "compiler": {
    "name": "solc",
    "version": "0.4.21+commit.dfe3193c.Emscripten.clang"
  },
  "schemaVersion": "2.0.0",
  "updatedAt": "2018-05-03T12:03:42.429Z"
}