{
  "contractName": "FighterAttack",
  "abi": [
    {
      "constant": false,
      "inputs": [
        {
          "name": "_name",
          "type": "string"
        }
      ],
      "name": "createRandomFighter",
      "outputs": [],
      "payable": false,
      "stateMutability": "nonpayable",
      "type": "function"
    },
    {
      "constant": true,
      "inputs": [
        {
          "name": "",
          "type": "uint256"
        }
      ],
      "name": "fighterToOwner",
      "outputs": [
        {
          "name": "",
          "type": "address"
        }
      ],
      "payable": false,
      "stateMutability": "view",
      "type": "function"
    },
    {
      "constant": true,
      "inputs": [
        {
          "name": "_owner",
          "type": "address"
        }
      ],
      "name": "getFightersByOwner",
      "outputs": [
        {
          "name": "",
          "type": "uint256[]"
        }
      ],
      "payable": false,
      "stateMutability": "view",
      "type": "function"
    },
    {
      "constant": true,
      "inputs": [
        {
          "name": "_tokenId",
          "type": "uint256"
        }
      ],
      "name": "getFighter",
      "outputs": [
        {
          "name": "name",
          "type": "string"
        }
      ],
      "payable": false,
      "stateMutability": "view",
      "type": "function"
    },
    {
      "constant": true,
      "inputs": [],
      "name": "owner",
      "outputs": [
        {
          "name": "",
          "type": "address"
        }
      ],
      "payable": false,
      "stateMutability": "view",
      "type": "function"
    },
    {
      "constant": false,
      "inputs": [
        {
          "name": "newOwner",
          "type": "address"
        }
      ],
      "name": "transferOwnership",
      "outputs": [],
      "payable": false,
      "stateMutability": "nonpayable",
      "type": "function"
    },
    {
      "anonymous": false,
      "inputs": [
        {
          "indexed": false,
          "name": "fighterId",
          "type": "uint256"
        },
        {
          "indexed": false,
          "name": "name",
          "type": "string"
        },
        {
          "indexed": false,
          "name": "dna",
          "type": "uint256"
        }
      ],
      "name": "NewFighter",
      "type": "event"
    },
    {
      "anonymous": false,
      "inputs": [
        {
          "indexed": true,
          "name": "previousOwner",
          "type": "address"
        },
        {
          "indexed": true,
          "name": "newOwner",
          "type": "address"
        }
      ],
      "name": "OwnershipTransferred",
      "type": "event"
    },
    {
      "constant": false,
      "inputs": [
        {
          "name": "_fighterId",
          "type": "uint256"
        },
        {
          "name": "_targetId",
          "type": "uint256"
        }
      ],
      "name": "attack",
      "outputs": [],
      "payable": false,
      "stateMutability": "nonpayable",
      "type": "function"
    }
  ],
  "bytecode": "0x60606040526010600355600354600a0a60045560006006556064600755336000806101000a81548173ffffffffffffffffffffffffffffffffffffffff021916908373ffffffffffffffffffffffffffffffffffffffff160217905550610fa48061006b6000396000f300606060405260043610610083576000357c0100000000000000000000000000000000000000000000000000000000900463ffffffff1680632aff8c79146100885780633824fbec146100e557806359fb97ac14610148578063889fa1dc146101d65780638da5cb5b14610272578063e1fa7638146102c7578063f2fde38b146102f3575b600080fd5b341561009357600080fd5b6100e3600480803590602001908201803590602001908080601f0160208091040260200160405190810160405280939291908181526020018383808284378201915050505050509190505061032c565b005b34156100f057600080fd5b6101066004808035906020019091905050610358565b604051808273ffffffffffffffffffffffffffffffffffffffff1673ffffffffffffffffffffffffffffffffffffffff16815260200191505060405180910390f35b341561015357600080fd5b61017f600480803573ffffffffffffffffffffffffffffffffffffffff1690602001909190505061038b565b6040518080602001828103825283818151815260200191508051906020019060200280838360005b838110156101c25780820151818401526020810190506101a7565b505050509050019250505060405180910390f35b34156101e157600080fd5b6101f760048080359060200190919050506104b9565b6040518080602001828103825283818151815260200191508051906020019080838360005b8381101561023757808201518184015260208101905061021c565b50505050905090810190601f1680156102645780820380516001836020036101000a031916815260200191505b509250505060405180910390f35b341561027d57600080fd5b610285610613565b604051808273ffffffffffffffffffffffffffffffffffffffff1673ffffffffffffffffffffffffffffffffffffffff16815260200191505060405180910390f35b34156102d257600080fd5b6102f16004808035906020019091908035906020019091905050610638565b005b34156102fe57600080fd5b61032a600480803573ffffffffffffffffffffffffffffffffffffffff169060200190919050506108ac565b005b600061033782610a01565b905060648181151561034557fe5b06810390506103548282610a83565b5050565b60016020528060005260406000206000915054906101000a900473ffffffffffffffffffffffffffffffffffffffff1681565b610393610d61565b61039b610d61565b600080600260008673ffffffffffffffffffffffffffffffffffffffff1673ffffffffffffffffffffffffffffffffffffffff168152602001908152602001600020546040518059106103eb5750595b9080825280602002602001820160405250925060009150600090505b6005805490508110156104ae578473ffffffffffffffffffffffffffffffffffffffff166001600083815260200190815260200160002060009054906101000a900473ffffffffffffffffffffffffffffffffffffffff1673ffffffffffffffffffffffffffffffffffffffff1614156104a15780838381518110151561048a57fe5b906020019060200201818152505081806001019250505b8080600101915050610407565b829350505050919050565b6104c1610d75565b6104c9610d89565b6005838154811015156104d857fe5b906000526020600020906003020160a06040519081016040529081600082018054600181600116156101000203166002900480601f01602080910402602001604051908101604052809291908181526020018280546001816001161561010002031660029004801561058b5780601f106105605761010080835404028352916020019161058b565b820191906000526020600020905b81548152906001019060200180831161056e57829003601f168201915b50505050508152602001600182015481526020016002820160009054906101000a900463ffffffff1663ffffffff1663ffffffff1681526020016002820160049054906101000a900461ffff1661ffff1661ffff1681526020016002820160069054906101000a900461ffff1661ffff1661ffff168152505090508060000151915050919050565b6000809054906101000a900473ffffffffffffffffffffffffffffffffffffffff1681565b6000806000846001600082815260200190815260200160002060009054906101000a900473ffffffffffffffffffffffffffffffffffffffff1673ffffffffffffffffffffffffffffffffffffffff163373ffffffffffffffffffffffffffffffffffffffff161415156106ab57600080fd5b6005868154811015156106ba57fe5b906000526020600020906003020193506005858154811015156106d957fe5b906000526020600020906003020192506106f36064610cd4565b91506007548460020160009054906101000a900463ffffffff1663ffffffff161115156107835760648460020160009054906101000a900463ffffffff1663ffffffff168460020160009054906101000a900463ffffffff1663ffffffff1681151561075b57fe5b0460010163ffffffff16600181151561077057fe5b040263ffffffff166007819055506107e8565b60648460020160009054906101000a900463ffffffff1663ffffffff168460020160009054906101000a900463ffffffff1663ffffffff168115156107c457fe5b0460010363ffffffff1660018115156107d957fe5b040263ffffffff166007819055505b6007548211151561086c5783600201600481819054906101000a900461ffff168092919060010191906101000a81548161ffff021916908361ffff1602179055505083600201600081819054906101000a900463ffffffff168092919060010191906101000a81548163ffffffff021916908363ffffffff160217905550506108a4565b83600201600681819054906101000a900461ffff168092919060010191906101000a81548161ffff021916908361ffff160217905550505b505050505050565b6000809054906101000a900473ffffffffffffffffffffffffffffffffffffffff1673ffffffffffffffffffffffffffffffffffffffff163373ffffffffffffffffffffffffffffffffffffffff1614151561090757600080fd5b600073ffffffffffffffffffffffffffffffffffffffff168173ffffffffffffffffffffffffffffffffffffffff161415151561094357600080fd5b8073ffffffffffffffffffffffffffffffffffffffff166000809054906101000a900473ffffffffffffffffffffffffffffffffffffffff1673ffffffffffffffffffffffffffffffffffffffff167f8be0079c531659141344cd1fd0a4f28419497f9722a3daafe3b4186f6b6457e060405160405180910390a3806000806101000a81548173ffffffffffffffffffffffffffffffffffffffff021916908373ffffffffffffffffffffffffffffffffffffffff16021790555050565b600080826040518082805190602001908083835b602083101515610a3a5780518252602082019150602081019050602083039250610a15565b6001836020036101000a038019825116818451168082178552505050505050905001915050604051809103902060019004905060045481811515610a7a57fe5b06915050919050565b6000600160058054806001018281610a9b9190610dcd565b9160005260206000209060030201600060a060405190810160405280888152602001878152602001600163ffffffff168152602001600061ffff168152602001600061ffff1681525090919091506000820151816000019080519060200190610b05929190610dff565b506020820151816001015560408201518160020160006101000a81548163ffffffff021916908363ffffffff16021790555060608201518160020160046101000a81548161ffff021916908361ffff16021790555060808201518160020160066101000a81548161ffff021916908361ffff1602179055505050039050336001600083815260200190815260200160002060006101000a81548173ffffffffffffffffffffffffffffffffffffffff021916908373ffffffffffffffffffffffffffffffffffffffff160217905550600260003373ffffffffffffffffffffffffffffffffffffffff1673ffffffffffffffffffffffffffffffffffffffff168152602001908152602001600020600081548092919060010191905055507ff5de8ff8364442df1540926a753270c25dc3d984115cfe434a65dc56321745bb8184846040518084815260200180602001838152602001828103825284818151815260200191508051906020019080838360005b83811015610c93578082015181840152602081019050610c78565b50505050905090810190601f168015610cc05780820380516001836020036101000a031916815260200191505b5094505050505060405180910390a1505050565b6000600660008154809291906001019190505550814233600654604051808481526020018373ffffffffffffffffffffffffffffffffffffffff1673ffffffffffffffffffffffffffffffffffffffff166c010000000000000000000000000281526014018281526020019350505050604051809103902060019004811515610d5957fe5b069050919050565b602060405190810160405280600081525090565b602060405190810160405280600081525090565b60a060405190810160405280610d9d610e7f565b815260200160008152602001600063ffffffff168152602001600061ffff168152602001600061ffff1681525090565b815481835581811511610dfa57600302816003028360005260206000209182019101610df99190610e93565b5b505050565b828054600181600116156101000203166002900490600052602060002090601f016020900481019282601f10610e4057805160ff1916838001178555610e6e565b82800160010185558215610e6e579182015b82811115610e6d578251825591602001919060010190610e52565b5b509050610e7b9190610f0b565b5090565b602060405190810160405280600081525090565b610f0891905b80821115610f045760008082016000610eb29190610f30565b60018201600090556002820160006101000a81549063ffffffff02191690556002820160046101000a81549061ffff02191690556002820160066101000a81549061ffff021916905550600301610e99565b5090565b90565b610f2d91905b80821115610f29576000816000905550600101610f11565b5090565b90565b50805460018160011615610100020316600290046000825580601f10610f565750610f75565b601f016020900490600052602060002090810190610f749190610f0b565b5b505600a165627a7a72305820a1b7d93539b4be1384e714074c2e422fc228bdaa2857bcd7de980fd5e4e663f20029",
  "source": "pragma solidity ^0.4.19;\n\nimport \"./CreateFighter.sol\";\n\ncontract FighterAttack is CreateFighter {\n\n  uint randNonce = 0;\n  uint attackVictoryProbability = 100;\n\n  function randMod(uint _modulus) internal returns(uint) {\n    randNonce++;\n    return uint(keccak256(now, msg.sender, randNonce)) % _modulus;\n  }\n\n  modifier onlyOwnerOf(uint _fighterId) {\n    require(msg.sender == fighterToOwner[_fighterId]);\n    _;\n  }\n\n  function attack(uint _fighterId, uint _targetId) external onlyOwnerOf(_fighterId) {\n    Fighter storage myFighter = fighters[_fighterId];\n    Fighter storage targetFighter = fighters[_targetId];\n    uint rand = randMod(100);\n    if (myFighter.level <= attackVictoryProbability) {\n      attackVictoryProbability = 1 / ( 1 + targetFighter.level / myFighter.level) * 100;\n    } else {\n      attackVictoryProbability = 1 / ( 1 - targetFighter.level / myFighter.level) * 100;\n    }\n    if (rand <= attackVictoryProbability) {\n      myFighter.winCount++;\n      myFighter.level++;\n\n    } else {\n      myFighter.lossCount++;\n    }\n  }\n\n\n}\n",
  "sourcePath": "/Users/joh/cryptohunters_second/contracts/attack.sol",
  "compiler": {
    "name": "solc",
    "version": "0.4.21+commit.dfe3193c.Emscripten.clang"
  },
  "schemaVersion": "2.0.0",
  "updatedAt": "2018-04-21T19:43:15.351Z"
}