{
  "contractName": "FighterAttack",
  "abi": [
    {
      "constant": false,
      "inputs": [
        {
          "name": "_name",
          "type": "string"
        }
      ],
      "name": "createRandomFighter",
      "outputs": [],
      "payable": false,
      "stateMutability": "nonpayable",
      "type": "function"
    },
    {
      "constant": true,
      "inputs": [
        {
          "name": "",
          "type": "uint256"
        }
      ],
      "name": "fighterToOwner",
      "outputs": [
        {
          "name": "",
          "type": "address"
        }
      ],
      "payable": false,
      "stateMutability": "view",
      "type": "function"
    },
    {
      "constant": true,
      "inputs": [],
      "name": "owner",
      "outputs": [
        {
          "name": "",
          "type": "address"
        }
      ],
      "payable": false,
      "stateMutability": "view",
      "type": "function"
    },
    {
      "constant": false,
      "inputs": [
        {
          "name": "newOwner",
          "type": "address"
        }
      ],
      "name": "transferOwnership",
      "outputs": [],
      "payable": false,
      "stateMutability": "nonpayable",
      "type": "function"
    },
    {
      "anonymous": false,
      "inputs": [
        {
          "indexed": false,
          "name": "fighterId",
          "type": "uint256"
        },
        {
          "indexed": false,
          "name": "name",
          "type": "string"
        },
        {
          "indexed": false,
          "name": "dna",
          "type": "uint256"
        }
      ],
      "name": "NewFighter",
      "type": "event"
    },
    {
      "anonymous": false,
      "inputs": [
        {
          "indexed": true,
          "name": "previousOwner",
          "type": "address"
        },
        {
          "indexed": true,
          "name": "newOwner",
          "type": "address"
        }
      ],
      "name": "OwnershipTransferred",
      "type": "event"
    },
    {
      "constant": false,
      "inputs": [
        {
          "name": "_fighterId",
          "type": "uint256"
        },
        {
          "name": "_targetId",
          "type": "uint256"
        }
      ],
      "name": "attack",
      "outputs": [],
      "payable": false,
      "stateMutability": "nonpayable",
      "type": "function"
    },
    {
      "constant": true,
      "inputs": [
        {
          "name": "_owner",
          "type": "address"
        }
      ],
      "name": "getFightersByOwner",
      "outputs": [
        {
          "name": "",
          "type": "uint256[]"
        }
      ],
      "payable": false,
      "stateMutability": "view",
      "type": "function"
    }
  ],
  "bytecode": "0x60606040526010600355600354600a0a60045560006006556064600755336000806101000a81548173ffffffffffffffffffffffffffffffffffffffff021916908373ffffffffffffffffffffffffffffffffffffffff160217905550610d378061006b6000396000f300606060405260043610610078576000357c0100000000000000000000000000000000000000000000000000000000900463ffffffff1680632aff8c791461007d5780633824fbec146100da57806359fb97ac1461013d5780638da5cb5b146101cb578063e1fa763814610220578063f2fde38b1461024c575b600080fd5b341561008857600080fd5b6100d8600480803590602001908201803590602001908080601f01602080910402602001604051908101604052809392919081815260200183838082843782019150505050505091905050610285565b005b34156100e557600080fd5b6100fb60048080359060200190919050506102b1565b604051808273ffffffffffffffffffffffffffffffffffffffff1673ffffffffffffffffffffffffffffffffffffffff16815260200191505060405180910390f35b341561014857600080fd5b610174600480803573ffffffffffffffffffffffffffffffffffffffff169060200190919050506102e4565b6040518080602001828103825283818151815260200191508051906020019060200280838360005b838110156101b757808201518184015260208101905061019c565b505050509050019250505060405180910390f35b34156101d657600080fd5b6101de610412565b604051808273ffffffffffffffffffffffffffffffffffffffff1673ffffffffffffffffffffffffffffffffffffffff16815260200191505060405180910390f35b341561022b57600080fd5b61024a6004808035906020019091908035906020019091905050610437565b005b341561025757600080fd5b610283600480803573ffffffffffffffffffffffffffffffffffffffff169060200190919050506106ab565b005b600061029082610800565b905060648181151561029e57fe5b06810390506102ad8282610882565b5050565b60016020528060005260406000206000915054906101000a900473ffffffffffffffffffffffffffffffffffffffff1681565b6102ec610b60565b6102f4610b60565b600080600260008673ffffffffffffffffffffffffffffffffffffffff1673ffffffffffffffffffffffffffffffffffffffff168152602001908152602001600020546040518059106103445750595b9080825280602002602001820160405250925060009150600090505b600580549050811015610407578473ffffffffffffffffffffffffffffffffffffffff166001600083815260200190815260200160002060009054906101000a900473ffffffffffffffffffffffffffffffffffffffff1673ffffffffffffffffffffffffffffffffffffffff1614156103fa578083838151811015156103e357fe5b906020019060200201818152505081806001019250505b8080600101915050610360565b829350505050919050565b6000809054906101000a900473ffffffffffffffffffffffffffffffffffffffff1681565b6000806000846001600082815260200190815260200160002060009054906101000a900473ffffffffffffffffffffffffffffffffffffffff1673ffffffffffffffffffffffffffffffffffffffff163373ffffffffffffffffffffffffffffffffffffffff161415156104aa57600080fd5b6005868154811015156104b957fe5b906000526020600020906003020193506005858154811015156104d857fe5b906000526020600020906003020192506104f26064610ad3565b91506007548460020160009054906101000a900463ffffffff1663ffffffff161115156105825760648460020160009054906101000a900463ffffffff1663ffffffff168460020160009054906101000a900463ffffffff1663ffffffff1681151561055a57fe5b0460010163ffffffff16600181151561056f57fe5b040263ffffffff166007819055506105e7565b60648460020160009054906101000a900463ffffffff1663ffffffff168460020160009054906101000a900463ffffffff1663ffffffff168115156105c357fe5b0460010363ffffffff1660018115156105d857fe5b040263ffffffff166007819055505b6007548211151561066b5783600201600481819054906101000a900461ffff168092919060010191906101000a81548161ffff021916908361ffff1602179055505083600201600081819054906101000a900463ffffffff168092919060010191906101000a81548163ffffffff021916908363ffffffff160217905550506106a3565b83600201600681819054906101000a900461ffff168092919060010191906101000a81548161ffff021916908361ffff160217905550505b505050505050565b6000809054906101000a900473ffffffffffffffffffffffffffffffffffffffff1673ffffffffffffffffffffffffffffffffffffffff163373ffffffffffffffffffffffffffffffffffffffff1614151561070657600080fd5b600073ffffffffffffffffffffffffffffffffffffffff168173ffffffffffffffffffffffffffffffffffffffff161415151561074257600080fd5b8073ffffffffffffffffffffffffffffffffffffffff166000809054906101000a900473ffffffffffffffffffffffffffffffffffffffff1673ffffffffffffffffffffffffffffffffffffffff167f8be0079c531659141344cd1fd0a4f28419497f9722a3daafe3b4186f6b6457e060405160405180910390a3806000806101000a81548173ffffffffffffffffffffffffffffffffffffffff021916908373ffffffffffffffffffffffffffffffffffffffff16021790555050565b600080826040518082805190602001908083835b6020831015156108395780518252602082019150602081019050602083039250610814565b6001836020036101000a03801982511681845116808217855250505050505090500191505060405180910390206001900490506004548181151561087957fe5b06915050919050565b600060016005805480600101828161089a9190610b74565b9160005260206000209060030201600060a060405190810160405280888152602001878152602001600163ffffffff168152602001600061ffff168152602001600061ffff1681525090919091506000820151816000019080519060200190610904929190610ba6565b506020820151816001015560408201518160020160006101000a81548163ffffffff021916908363ffffffff16021790555060608201518160020160046101000a81548161ffff021916908361ffff16021790555060808201518160020160066101000a81548161ffff021916908361ffff1602179055505050039050336001600083815260200190815260200160002060006101000a81548173ffffffffffffffffffffffffffffffffffffffff021916908373ffffffffffffffffffffffffffffffffffffffff160217905550600260003373ffffffffffffffffffffffffffffffffffffffff1673ffffffffffffffffffffffffffffffffffffffff168152602001908152602001600020600081548092919060010191905055507ff5de8ff8364442df1540926a753270c25dc3d984115cfe434a65dc56321745bb8184846040518084815260200180602001838152602001828103825284818151815260200191508051906020019080838360005b83811015610a92578082015181840152602081019050610a77565b50505050905090810190601f168015610abf5780820380516001836020036101000a031916815260200191505b5094505050505060405180910390a1505050565b6000600660008154809291906001019190505550814233600654604051808481526020018373ffffffffffffffffffffffffffffffffffffffff1673ffffffffffffffffffffffffffffffffffffffff166c010000000000000000000000000281526014018281526020019350505050604051809103902060019004811515610b5857fe5b069050919050565b602060405190810160405280600081525090565b815481835581811511610ba157600302816003028360005260206000209182019101610ba09190610c26565b5b505050565b828054600181600116156101000203166002900490600052602060002090601f016020900481019282601f10610be757805160ff1916838001178555610c15565b82800160010185558215610c15579182015b82811115610c14578251825591602001919060010190610bf9565b5b509050610c229190610c9e565b5090565b610c9b91905b80821115610c975760008082016000610c459190610cc3565b60018201600090556002820160006101000a81549063ffffffff02191690556002820160046101000a81549061ffff02191690556002820160066101000a81549061ffff021916905550600301610c2c565b5090565b90565b610cc091905b80821115610cbc576000816000905550600101610ca4565b5090565b90565b50805460018160011615610100020316600290046000825580601f10610ce95750610d08565b601f016020900490600052602060002090810190610d079190610c9e565b5b505600a165627a7a72305820adafe7b933a80149dd6db015c5d7ea5c8579b760b735c30d1e1bfdf610ffbd2c0029",
  "source": "pragma solidity ^0.4.19;\n\nimport \"./CreateFighters.sol\";\n\ncontract FighterAttack is CreateFighter {\n\n  uint randNonce = 0;\n  uint attackVictoryProbability = 100;\n\n  function randMod(uint _modulus) internal returns(uint) {\n    randNonce++;\n    return uint(keccak256(now, msg.sender, randNonce)) % _modulus;\n  }\n\n  modifier onlyOwnerOf(uint _fighterId) {\n    require(msg.sender == fighterToOwner[_fighterId]);\n    _;\n  }\n\n  function attack(uint _fighterId, uint _targetId) external onlyOwnerOf(_fighterId) {\n    Fighter storage myFighter = fighters[_fighterId];\n    Fighter storage targetFighter = fighters[_targetId];\n    uint rand = randMod(100);\n    if (myFighter.level <= attackVictoryProbability) {\n      attackVictoryProbability = 1 / ( 1 + targetFighter.level / myFighter.level) * 100;\n    } else {\n      attackVictoryProbability = 1 / ( 1 - targetFighter.level / myFighter.level) * 100;\n    }\n    if (rand <= attackVictoryProbability) {\n      myFighter.winCount++;\n      myFighter.level++;\n\n    } else {\n      myFighter.lossCount++;\n    }\n  }\n\n  function getFightersByOwner(address _owner) external view returns(uint[]) {\n    uint[] memory result = new uint[](ownerFighterCount[_owner]);\n    uint counter = 0;\n    for (uint i = 0; i < fighters.length; i++) {\n      if (fighterToOwner[i] == _owner) {\n        result[counter] = i;\n        counter++;\n      }\n    }\n    return result;\n  }\n\n}\n",
  "sourcePath": "/Users/joh/cryptohunters_second/contracts/attack.sol",
  "compiler": {
    "name": "solc",
    "version": "0.4.21+commit.dfe3193c.Emscripten.clang"
  },
  "schemaVersion": "2.0.0",
  "updatedAt": "2018-04-21T17:51:37.832Z"
}